{
    "_format": "hh-sol-artifact-1",
    "contractName": "PersonalTraining",
    "sourceName": "contracts/Training.sol",
    "abi": [
        {
            "inputs": [],
            "stateMutability": "nonpayable",
            "type": "constructor"
        },
        {
            "anonymous": false,
            "inputs": [
                {
                    "indexed": false,
                    "internalType": "uint256",
                    "name": "id",
                    "type": "uint256"
                },
                {
                    "indexed": false,
                    "internalType": "string",
                    "name": "name",
                    "type": "string"
                },
                {
                    "indexed": false,
                    "internalType": "uint256",
                    "name": "price",
                    "type": "uint256"
                }
            ],
            "name": "SessionAdded",
            "type": "event"
        },
        {
            "anonymous": false,
            "inputs": [
                {
                    "indexed": false,
                    "internalType": "address",
                    "name": "client",
                    "type": "address"
                },
                {
                    "indexed": false,
                    "internalType": "uint256",
                    "name": "id",
                    "type": "uint256"
                }
            ],
            "name": "SessionBooked",
            "type": "event"
        },
        {
            "anonymous": false,
            "inputs": [
                {
                    "indexed": false,
                    "internalType": "uint256",
                    "name": "id",
                    "type": "uint256"
                },
                {
                    "indexed": false,
                    "internalType": "string",
                    "name": "name",
                    "type": "string"
                },
                {
                    "indexed": false,
                    "internalType": "uint256",
                    "name": "price",
                    "type": "uint256"
                },
                {
                    "indexed": false,
                    "internalType": "uint256",
                    "name": "slots",
                    "type": "uint256"
                }
            ],
            "name": "SessionUpdated",
            "type": "event"
        },
        {
            "inputs": [
                {
                    "internalType": "string",
                    "name": "_name",
                    "type": "string"
                },
                {
                    "internalType": "string",
                    "name": "_image",
                    "type": "string"
                },
                {
                    "internalType": "uint256",
                    "name": "_price",
                    "type": "uint256"
                },
                {
                    "internalType": "uint256",
                    "name": "_slots",
                    "type": "uint256"
                }
            ],
            "name": "addSession",
            "outputs": [],
            "stateMutability": "nonpayable",
            "type": "function"
        },
        {
            "inputs": [
                {
                    "internalType": "uint256",
                    "name": "_id",
                    "type": "uint256"
                }
            ],
            "name": "bookSession",
            "outputs": [],
            "stateMutability": "payable",
            "type": "function"
        },
        {
            "inputs": [
                {
                    "internalType": "uint256",
                    "name": "_id",
                    "type": "uint256"
                }
            ],
            "name": "getSession",
            "outputs": [
                {
                    "components": [
                        {
                            "internalType": "uint256",
                            "name": "id",
                            "type": "uint256"
                        },
                        {
                            "internalType": "string",
                            "name": "name",
                            "type": "string"
                        },
                        {
                            "internalType": "string",
                            "name": "image",
                            "type": "string"
                        },
                        {
                            "internalType": "uint256",
                            "name": "price",
                            "type": "uint256"
                        },
                        {
                            "internalType": "uint256",
                            "name": "slots",
                            "type": "uint256"
                        }
                    ],
                    "internalType": "struct PersonalTraining.Session",
                    "name": "",
                    "type": "tuple"
                }
            ],
            "stateMutability": "view",
            "type": "function"
        },
        {
            "inputs": [],
            "name": "getSessions",
            "outputs": [
                {
                    "components": [
                        {
                            "internalType": "uint256",
                            "name": "id",
                            "type": "uint256"
                        },
                        {
                            "internalType": "string",
                            "name": "name",
                            "type": "string"
                        },
                        {
                            "internalType": "string",
                            "name": "image",
                            "type": "string"
                        },
                        {
                            "internalType": "uint256",
                            "name": "price",
                            "type": "uint256"
                        },
                        {
                            "internalType": "uint256",
                            "name": "slots",
                            "type": "uint256"
                        }
                    ],
                    "internalType": "struct PersonalTraining.Session[]",
                    "name": "",
                    "type": "tuple[]"
                }
            ],
            "stateMutability": "view",
            "type": "function"
        },
        {
            "inputs": [],
            "name": "owner",
            "outputs": [
                {
                    "internalType": "address",
                    "name": "",
                    "type": "address"
                }
            ],
            "stateMutability": "view",
            "type": "function"
        },
        {
            "inputs": [
                {
                    "internalType": "uint256",
                    "name": "",
                    "type": "uint256"
                }
            ],
            "name": "sessions",
            "outputs": [
                {
                    "internalType": "uint256",
                    "name": "id",
                    "type": "uint256"
                },
                {
                    "internalType": "string",
                    "name": "name",
                    "type": "string"
                },
                {
                    "internalType": "string",
                    "name": "image",
                    "type": "string"
                },
                {
                    "internalType": "uint256",
                    "name": "price",
                    "type": "uint256"
                },
                {
                    "internalType": "uint256",
                    "name": "slots",
                    "type": "uint256"
                }
            ],
            "stateMutability": "view",
            "type": "function"
        },
        {
            "inputs": [
                {
                    "internalType": "uint256",
                    "name": "_id",
                    "type": "uint256"
                },
                {
                    "internalType": "string",
                    "name": "_name",
                    "type": "string"
                },
                {
                    "internalType": "string",
                    "name": "_image",
                    "type": "string"
                },
                {
                    "internalType": "uint256",
                    "name": "_price",
                    "type": "uint256"
                },
                {
                    "internalType": "uint256",
                    "name": "_slots",
                    "type": "uint256"
                }
            ],
            "name": "updateSession",
            "outputs": [],
            "stateMutability": "nonpayable",
            "type": "function"
        }
    ],
    "bytecode": "0x608060405234801561001057600080fd5b50336000806101000a81548173ffffffffffffffffffffffffffffffffffffffff021916908373ffffffffffffffffffffffffffffffffffffffff160217905550611ac1806100606000396000f3fe6080604052600436106100705760003560e01c80638da5cb5b1161004e5780638da5cb5b1461011e578063a38d5cb414610149578063c904b0a314610172578063cf29cdc91461019b57610070565b8063402ff0db1461007557806361503e45146100b257806383c4b7a3146100dd575b600080fd5b34801561008157600080fd5b5061009c60048036038101906100979190610d1a565b6101b7565b6040516100a99190610e63565b60405180910390f35b3480156100be57600080fd5b506100c7610394565b6040516100d49190610fc4565b60405180910390f35b3480156100e957600080fd5b5061010460048036038101906100ff9190610d1a565b610535565b60405161011595949392919061103f565b60405180910390f35b34801561012a57600080fd5b5061013361068b565b60405161014091906110e1565b60405180910390f35b34801561015557600080fd5b50610170600480360381019061016b9190611231565b6106af565b005b34801561017e57600080fd5b50610199600480360381019061019491906112e4565b6108c3565b005b6101b560048036038101906101b09190610d1a565b610acc565b005b6101bf610ca1565b6000821180156101d457506001805490508211155b610213576040517f08c379a000000000000000000000000000000000000000000000000000000000815260040161020a906113cf565b60405180910390fd5b60018083610221919061141e565b8154811061023257610231611452565b5b90600052602060002090600502016040518060a001604052908160008201548152602001600182018054610265906114b0565b80601f0160208091040260200160405190810160405280929190818152602001828054610291906114b0565b80156102de5780601f106102b3576101008083540402835291602001916102de565b820191906000526020600020905b8154815290600101906020018083116102c157829003601f168201915b505050505081526020016002820180546102f7906114b0565b80601f0160208091040260200160405190810160405280929190818152602001828054610323906114b0565b80156103705780601f1061034557610100808354040283529160200191610370565b820191906000526020600020905b81548152906001019060200180831161035357829003601f168201915b50505050508152602001600382015481526020016004820154815250509050919050565b60606001805480602002602001604051908101604052809291908181526020016000905b8282101561052c57838290600052602060002090600502016040518060a0016040529081600082015481526020016001820180546103f5906114b0565b80601f0160208091040260200160405190810160405280929190818152602001828054610421906114b0565b801561046e5780601f106104435761010080835404028352916020019161046e565b820191906000526020600020905b81548152906001019060200180831161045157829003601f168201915b50505050508152602001600282018054610487906114b0565b80601f01602080910402602001604051908101604052809291908181526020018280546104b3906114b0565b80156105005780601f106104d557610100808354040283529160200191610500565b820191906000526020600020905b8154815290600101906020018083116104e357829003601f168201915b5050505050815260200160038201548152602001600482015481525050815260200190600101906103b8565b50505050905090565b6001818154811061054557600080fd5b906000526020600020906005020160009150905080600001549080600101805461056e906114b0565b80601f016020809104026020016040519081016040528092919081815260200182805461059a906114b0565b80156105e75780601f106105bc576101008083540402835291602001916105e7565b820191906000526020600020905b8154815290600101906020018083116105ca57829003601f168201915b5050505050908060020180546105fc906114b0565b80601f0160208091040260200160405190810160405280929190818152602001828054610628906114b0565b80156106755780601f1061064a57610100808354040283529160200191610675565b820191906000526020600020905b81548152906001019060200180831161065857829003601f168201915b5050505050908060030154908060040154905085565b60008054906101000a900473ffffffffffffffffffffffffffffffffffffffff1681565b60008054906101000a900473ffffffffffffffffffffffffffffffffffffffff1673ffffffffffffffffffffffffffffffffffffffff163373ffffffffffffffffffffffffffffffffffffffff161461073d576040517f08c379a00000000000000000000000000000000000000000000000000000000081526004016107349061152d565b60405180910390fd5b60008511801561075257506001805490508511155b610791576040517f08c379a0000000000000000000000000000000000000000000000000000000008152600401610788906113cf565b60405180910390fd5b600082116107d4576040517f08c379a00000000000000000000000000000000000000000000000000000000081526004016107cb90611599565b60405180910390fd5b60008111610817576040517f08c379a000000000000000000000000000000000000000000000000000000000815260040161080e90611605565b60405180910390fd5b600060018087610827919061141e565b8154811061083857610837611452565b5b906000526020600020906005020190508481600101908161085991906117d1565b508381600201908161086b91906117d1565b508281600301819055508181600401819055507f2ca116c37e023943cd6deb5b47ff05a1bf548ca20c8f1fef5101aaa4fe7fb89c868685856040516108b394939291906118a3565b60405180910390a1505050505050565b60008054906101000a900473ffffffffffffffffffffffffffffffffffffffff1673ffffffffffffffffffffffffffffffffffffffff163373ffffffffffffffffffffffffffffffffffffffff1614610951576040517f08c379a00000000000000000000000000000000000000000000000000000000081526004016109489061152d565b60405180910390fd5b60008211610994576040517f08c379a000000000000000000000000000000000000000000000000000000000815260040161098b90611599565b60405180910390fd5b600081116109d7576040517f08c379a00000000000000000000000000000000000000000000000000000000081526004016109ce90611605565b60405180910390fd5b6000600180805490506109ea91906118ef565b905060016040518060a00160405280838152602001878152602001868152602001858152602001848152509080600181540180825580915050600190039060005260206000209060050201600090919091909150600082015181600001556020820151816001019081610a5d91906117d1565b506040820151816002019081610a7391906117d1565b50606082015181600301556080820151816004015550507f662762977fa0e97acfd3a99e4c87cdb9119308ab2de1572bfeb12348185e29dc818685604051610abd93929190611923565b60405180910390a15050505050565b600081118015610ae157506001805490508111155b610b20576040517f08c379a0000000000000000000000000000000000000000000000000000000008152600401610b17906113cf565b60405180910390fd5b600060018083610b30919061141e565b81548110610b4157610b40611452565b5b906000526020600020906005020190508060030154341015610b98576040517f08c379a0000000000000000000000000000000000000000000000000000000008152600401610b8f906119ad565b60405180910390fd5b6000816004015411610bdf576040517f08c379a0000000000000000000000000000000000000000000000000000000008152600401610bd690611a19565b60405180910390fd5b806004016000815480929190610bf490611a39565b919050555060008054906101000a900473ffffffffffffffffffffffffffffffffffffffff1673ffffffffffffffffffffffffffffffffffffffff166108fc82600301549081150290604051600060405180830381858888f19350505050158015610c63573d6000803e3d6000fd5b507f2709a9b8e83ea9d9ac341b9cef432ca1510137689aee4439c3ceb0a31aafb1823383604051610c95929190611a62565b60405180910390a15050565b6040518060a0016040528060008152602001606081526020016060815260200160008152602001600081525090565b6000604051905090565b600080fd5b600080fd5b6000819050919050565b610cf781610ce4565b8114610d0257600080fd5b50565b600081359050610d1481610cee565b92915050565b600060208284031215610d3057610d2f610cda565b5b6000610d3e84828501610d05565b91505092915050565b610d5081610ce4565b82525050565b600081519050919050565b600082825260208201905092915050565b60005b83811015610d90578082015181840152602081019050610d75565b60008484015250505050565b6000601f19601f8301169050919050565b6000610db882610d56565b610dc28185610d61565b9350610dd2818560208601610d72565b610ddb81610d9c565b840191505092915050565b600060a083016000830151610dfe6000860182610d47565b5060208301518482036020860152610e168282610dad565b91505060408301518482036040860152610e308282610dad565b9150506060830151610e456060860182610d47565b506080830151610e586080860182610d47565b508091505092915050565b60006020820190508181036000830152610e7d8184610de6565b905092915050565b600081519050919050565b600082825260208201905092915050565b6000819050602082019050919050565b600060a083016000830151610ec96000860182610d47565b5060208301518482036020860152610ee18282610dad565b91505060408301518482036040860152610efb8282610dad565b9150506060830151610f106060860182610d47565b506080830151610f236080860182610d47565b508091505092915050565b6000610f3a8383610eb1565b905092915050565b6000602082019050919050565b6000610f5a82610e85565b610f648185610e90565b935083602082028501610f7685610ea1565b8060005b85811015610fb25784840389528151610f938582610f2e565b9450610f9e83610f42565b925060208a01995050600181019050610f7a565b50829750879550505050505092915050565b60006020820190508181036000830152610fde8184610f4f565b905092915050565b610fef81610ce4565b82525050565b600082825260208201905092915050565b600061101182610d56565b61101b8185610ff5565b935061102b818560208601610d72565b61103481610d9c565b840191505092915050565b600060a0820190506110546000830188610fe6565b81810360208301526110668187611006565b9050818103604083015261107a8186611006565b90506110896060830185610fe6565b6110966080830184610fe6565b9695505050505050565b600073ffffffffffffffffffffffffffffffffffffffff82169050919050565b60006110cb826110a0565b9050919050565b6110db816110c0565b82525050565b60006020820190506110f660008301846110d2565b92915050565b600080fd5b600080fd5b7f4e487b7100000000000000000000000000000000000000000000000000000000600052604160045260246000fd5b61113e82610d9c565b810181811067ffffffffffffffff8211171561115d5761115c611106565b5b80604052505050565b6000611170610cd0565b905061117c8282611135565b919050565b600067ffffffffffffffff82111561119c5761119b611106565b5b6111a582610d9c565b9050602081019050919050565b82818337600083830152505050565b60006111d46111cf84611181565b611166565b9050828152602081018484840111156111f0576111ef611101565b5b6111fb8482856111b2565b509392505050565b600082601f830112611218576112176110fc565b5b81356112288482602086016111c1565b91505092915050565b600080600080600060a0868803121561124d5761124c610cda565b5b600061125b88828901610d05565b955050602086013567ffffffffffffffff81111561127c5761127b610cdf565b5b61128888828901611203565b945050604086013567ffffffffffffffff8111156112a9576112a8610cdf565b5b6112b588828901611203565b93505060606112c688828901610d05565b92505060806112d788828901610d05565b9150509295509295909350565b600080600080608085870312156112fe576112fd610cda565b5b600085013567ffffffffffffffff81111561131c5761131b610cdf565b5b61132887828801611203565b945050602085013567ffffffffffffffff81111561134957611348610cdf565b5b61135587828801611203565b935050604061136687828801610d05565b925050606061137787828801610d05565b91505092959194509250565b7f496e76616c69642073657373696f6e2049440000000000000000000000000000600082015250565b60006113b9601283610ff5565b91506113c482611383565b602082019050919050565b600060208201905081810360008301526113e8816113ac565b9050919050565b7f4e487b7100000000000000000000000000000000000000000000000000000000600052601160045260246000fd5b600061142982610ce4565b915061143483610ce4565b925082820390508181111561144c5761144b6113ef565b5b92915050565b7f4e487b7100000000000000000000000000000000000000000000000000000000600052603260045260246000fd5b7f4e487b7100000000000000000000000000000000000000000000000000000000600052602260045260246000fd5b600060028204905060018216806114c857607f821691505b6020821081036114db576114da611481565b5b50919050565b7f4f6e6c79206f776e657200000000000000000000000000000000000000000000600082015250565b6000611517600a83610ff5565b9150611522826114e1565b602082019050919050565b600060208201905081810360008301526115468161150a565b9050919050565b7f496e76616c696420707269636500000000000000000000000000000000000000600082015250565b6000611583600d83610ff5565b915061158e8261154d565b602082019050919050565b600060208201905081810360008301526115b281611576565b9050919050565b7f496e76616c696420736c6f747300000000000000000000000000000000000000600082015250565b60006115ef600d83610ff5565b91506115fa826115b9565b602082019050919050565b6000602082019050818103600083015261161e816115e2565b9050919050565b60008190508160005260206000209050919050565b60006020601f8301049050919050565b600082821b905092915050565b6000600883026116877fffffffffffffffffffffffffffffffffffffffffffffffffffffffffffffffff8261164a565b611691868361164a565b95508019841693508086168417925050509392505050565b6000819050919050565b60006116ce6116c96116c484610ce4565b6116a9565b610ce4565b9050919050565b6000819050919050565b6116e8836116b3565b6116fc6116f4826116d5565b848454611657565b825550505050565b600090565b611711611704565b61171c8184846116df565b505050565b5b8181101561174057611735600082611709565b600181019050611722565b5050565b601f8211156117855761175681611625565b61175f8461163a565b8101602085101561176e578190505b61178261177a8561163a565b830182611721565b50505b505050565b600082821c905092915050565b60006117a86000198460080261178a565b1980831691505092915050565b60006117c18383611797565b9150826002028217905092915050565b6117da82610d56565b67ffffffffffffffff8111156117f3576117f2611106565b5b6117fd82546114b0565b611808828285611744565b600060209050601f83116001811461183b5760008415611829578287015190505b61183385826117b5565b86555061189b565b601f19841661184986611625565b60005b828110156118715784890151825560018201915060208501945060208101905061184c565b8683101561188e578489015161188a601f891682611797565b8355505b6001600288020188555050505b505050505050565b60006080820190506118b86000830187610fe6565b81810360208301526118ca8186611006565b90506118d96040830185610fe6565b6118e66060830184610fe6565b95945050505050565b60006118fa82610ce4565b915061190583610ce4565b925082820190508082111561191d5761191c6113ef565b5b92915050565b60006060820190506119386000830186610fe6565b818103602083015261194a8185611006565b90506119596040830184610fe6565b949350505050565b7f4e6f7420656e6f756768204554482073656e7400000000000000000000000000600082015250565b6000611997601383610ff5565b91506119a282611961565b602082019050919050565b600060208201905081810360008301526119c68161198a565b9050919050565b7f4e6f20736c6f747320617661696c61626c650000000000000000000000000000600082015250565b6000611a03601283610ff5565b9150611a0e826119cd565b602082019050919050565b60006020820190508181036000830152611a32816119f6565b9050919050565b6000611a4482610ce4565b915060008203611a5757611a566113ef565b5b600182039050919050565b6000604082019050611a7760008301856110d2565b611a846020830184610fe6565b939250505056fea264697066735822122026d8db296898666c69fad66171554d931cabd9fd22aae061d26a041c7385e9f764736f6c63430008140033",
    "linkReferences": {},
    "deployedLinkReferences": {}
}